{
  "contractName": "MultiSigWallet",
  "abi": [
    {
      "inputs": [],
      "payable": false,
      "stateMutability": "nonpayable",
      "type": "constructor"
    },
    {
      "payable": true,
      "stateMutability": "payable",
      "type": "fallback"
    },
    {
      "anonymous": false,
      "inputs": [
        {
          "indexed": false,
          "name": "from",
          "type": "address"
        },
        {
          "indexed": false,
          "name": "amount",
          "type": "uint256"
        }
      ],
      "name": "DepositFunds",
      "type": "event"
    },
    {
      "anonymous": false,
      "inputs": [
        {
          "indexed": false,
          "name": "from",
          "type": "address"
        },
        {
          "indexed": false,
          "name": "to",
          "type": "address"
        },
        {
          "indexed": false,
          "name": "amount",
          "type": "uint256"
        },
        {
          "indexed": false,
          "name": "transactionId",
          "type": "uint256"
        }
      ],
      "name": "TransactionCreated",
      "type": "event"
    },
    {
      "anonymous": false,
      "inputs": [
        {
          "indexed": false,
          "name": "from",
          "type": "address"
        },
        {
          "indexed": false,
          "name": "to",
          "type": "address"
        },
        {
          "indexed": false,
          "name": "amount",
          "type": "uint256"
        },
        {
          "indexed": false,
          "name": "transactionId",
          "type": "uint256"
        }
      ],
      "name": "TransactionCompleted",
      "type": "event"
    },
    {
      "anonymous": false,
      "inputs": [
        {
          "indexed": false,
          "name": "by",
          "type": "address"
        },
        {
          "indexed": false,
          "name": "transactionId",
          "type": "uint256"
        }
      ],
      "name": "TransactionSigned",
      "type": "event"
    },
    {
      "constant": false,
      "inputs": [
        {
          "name": "owner",
          "type": "address"
        }
      ],
      "name": "addOwner",
      "outputs": [],
      "payable": false,
      "stateMutability": "nonpayable",
      "type": "function"
    },
    {
      "constant": false,
      "inputs": [
        {
          "name": "owner",
          "type": "address"
        }
      ],
      "name": "removeOwner",
      "outputs": [],
      "payable": false,
      "stateMutability": "nonpayable",
      "type": "function"
    },
    {
      "constant": false,
      "inputs": [],
      "name": "send",
      "outputs": [],
      "payable": true,
      "stateMutability": "payable",
      "type": "function"
    },
    {
      "constant": false,
      "inputs": [
        {
          "name": "amount",
          "type": "uint256"
        }
      ],
      "name": "withdraw",
      "outputs": [],
      "payable": false,
      "stateMutability": "nonpayable",
      "type": "function"
    },
    {
      "constant": false,
      "inputs": [
        {
          "name": "to",
          "type": "address"
        },
        {
          "name": "amount",
          "type": "uint256"
        }
      ],
      "name": "transferTo",
      "outputs": [],
      "payable": false,
      "stateMutability": "nonpayable",
      "type": "function"
    },
    {
      "constant": true,
      "inputs": [],
      "name": "getActiveTransactions",
      "outputs": [
        {
          "name": "",
          "type": "uint256[]"
        }
      ],
      "payable": false,
      "stateMutability": "view",
      "type": "function"
    },
    {
      "constant": false,
      "inputs": [
        {
          "name": "transactionId",
          "type": "uint256"
        }
      ],
      "name": "signTransaction",
      "outputs": [],
      "payable": false,
      "stateMutability": "nonpayable",
      "type": "function"
    },
    {
      "constant": false,
      "inputs": [
        {
          "name": "transactionId",
          "type": "uint256"
        }
      ],
      "name": "deleteTransaction",
      "outputs": [],
      "payable": false,
      "stateMutability": "nonpayable",
      "type": "function"
    },
    {
      "constant": true,
      "inputs": [],
      "name": "getPendingTransactionLength",
      "outputs": [
        {
          "name": "",
          "type": "uint256"
        }
      ],
      "payable": false,
      "stateMutability": "view",
      "type": "function"
    },
    {
      "constant": true,
      "inputs": [],
      "name": "walletBalance",
      "outputs": [
        {
          "name": "",
          "type": "uint256"
        }
      ],
      "payable": false,
      "stateMutability": "view",
      "type": "function"
    }
  ],
  "bytecode": "0x608060405234801561001057600080fd5b50336000806101000a81548173ffffffffffffffffffffffffffffffffffffffff021916908373ffffffffffffffffffffffffffffffffffffffff1602179055506111e6806100606000396000f3006080604052600436106100a3576000357c0100000000000000000000000000000000000000000000000000000000900463ffffffff168062e9c00614610110578063173825d91461013d5780632ccb1b30146101805780632e1a7d4d146101cd5780635d9ec210146101fa5780637065cb4814610227578063b46300ec1461026a578063cd0a314b14610274578063eb96e3ab1461029f578063fe3da611146102ca575b7fd241e73300212f6df233a8e6d3146b88a9d4964e06621d54b5ff6afeba7b1b883334604051808373ffffffffffffffffffffffffffffffffffffffff1673ffffffffffffffffffffffffffffffffffffffff1681526020018281526020019250505060405180910390a1005b34801561011c57600080fd5b5061013b60048036038101908080359060200190929190505050610336565b005b34801561014957600080fd5b5061017e600480360381019080803573ffffffffffffffffffffffffffffffffffffffff169060200190929190505050610565565b005b34801561018c57600080fd5b506101cb600480360381019080803573ffffffffffffffffffffffffffffffffffffffff16906020019092919080359060200190929190505050610675565b005b3480156101d957600080fd5b506101f8600480360381019080803590602001909291905050506109a2565b005b34801561020657600080fd5b5061022560048036038101908080359060200190929190505050610a63565b005b34801561023357600080fd5b50610268600480360381019080803573ffffffffffffffffffffffffffffffffffffffff169060200190929190505050610ec8565b005b610272610fd7565b005b34801561028057600080fd5b50610289610fd9565b6040518082815260200191505060405180910390f35b3480156102ab57600080fd5b506102b4610ff8565b6040518082815260200191505060405180910390f35b3480156102d657600080fd5b506102df611005565b6040518080602001828103825283818151815260200191508051906020019060200280838360005b83811015610322578082015181840152602081019050610307565b505050509050019250505060405180910390f35b6000806000809054906101000a900473ffffffffffffffffffffffffffffffffffffffff1673ffffffffffffffffffffffffffffffffffffffff163373ffffffffffffffffffffffffffffffffffffffff1614806103e2575060018060003373ffffffffffffffffffffffffffffffffffffffff1673ffffffffffffffffffffffffffffffffffffffff16815260200190815260200160002060009054906101000a900460ff1660ff16145b15156103ed57600080fd5b60009150600060038054905011151561040557600080fd5b600090505b600380549050811015610496578160ff16600114156104625760038181548110151561043257fe5b906000526020600020015460036001830381548110151561044f57fe5b9060005260206000200181905550610489565b8260038281548110151561047257fe5b9060005260206000200154141561048857600191505b5b808060010191505061040a565b60018260ff161415156104a557fe5b60036001600380549050038154811015156104bc57fe5b906000526020600020016000905560038054809190600190036104df9190611111565b5060046000848152602001908152602001600020600080820160006101000a81549073ffffffffffffffffffffffffffffffffffffffff02191690556001820160006101000a81549073ffffffffffffffffffffffffffffffffffffffff021916905560028201600090556003820160006101000a81549060ff02191690555050505050565b6000809054906101000a900473ffffffffffffffffffffffffffffffffffffffff1673ffffffffffffffffffffffffffffffffffffffff163373ffffffffffffffffffffffffffffffffffffffff16148061060e575060018060003373ffffffffffffffffffffffffffffffffffffffff1673ffffffffffffffffffffffffffffffffffffffff16815260200190815260200160002060009054906101000a900460ff1660ff16145b151561061957600080fd5b6000600160008373ffffffffffffffffffffffffffffffffffffffff1673ffffffffffffffffffffffffffffffffffffffff16815260200190815260200160002060006101000a81548160ff021916908360ff16021790555050565b600061067f61113d565b6000809054906101000a900473ffffffffffffffffffffffffffffffffffffffff1673ffffffffffffffffffffffffffffffffffffffff163373ffffffffffffffffffffffffffffffffffffffff161480610728575060018060003373ffffffffffffffffffffffffffffffffffffffff1673ffffffffffffffffffffffffffffffffffffffff16815260200190815260200160002060009054906101000a900460ff1660ff16145b151561073357600080fd5b823073ffffffffffffffffffffffffffffffffffffffff16311015151561075957600080fd5b6002600081548092919060010191905055915033816000019073ffffffffffffffffffffffffffffffffffffffff16908173ffffffffffffffffffffffffffffffffffffffff168152505083816020019073ffffffffffffffffffffffffffffffffffffffff16908173ffffffffffffffffffffffffffffffffffffffff1681525050828160400181815250506000816060019060ff16908160ff1681525050806004600084815260200190815260200160002060008201518160000160006101000a81548173ffffffffffffffffffffffffffffffffffffffff021916908373ffffffffffffffffffffffffffffffffffffffff16021790555060208201518160010160006101000a81548173ffffffffffffffffffffffffffffffffffffffff021916908373ffffffffffffffffffffffffffffffffffffffff1602179055506040820151816002015560608201518160030160006101000a81548160ff021916908360ff16021790555090505060038290806001815401808255809150509060018203906000526020600020016000909192909190915055507f41d8c89c4a25824354aa1f198d80d06f2f93f903a2d180d1ea20429a4678c4a433858585604051808573ffffffffffffffffffffffffffffffffffffffff1673ffffffffffffffffffffffffffffffffffffffff1681526020018473ffffffffffffffffffffffffffffffffffffffff1673ffffffffffffffffffffffffffffffffffffffff16815260200183815260200182815260200194505050505060405180910390a150505050565b6000809054906101000a900473ffffffffffffffffffffffffffffffffffffffff1673ffffffffffffffffffffffffffffffffffffffff163373ffffffffffffffffffffffffffffffffffffffff161480610a4b575060018060003373ffffffffffffffffffffffffffffffffffffffff1673ffffffffffffffffffffffffffffffffffffffff16815260200190815260200160002060009054906101000a900460ff1660ff16145b1515610a5657600080fd5b610a603382610675565b50565b60008060009054906101000a900473ffffffffffffffffffffffffffffffffffffffff1673ffffffffffffffffffffffffffffffffffffffff163373ffffffffffffffffffffffffffffffffffffffff161480610b0e575060018060003373ffffffffffffffffffffffffffffffffffffffff1673ffffffffffffffffffffffffffffffffffffffff16815260200190815260200160002060009054906101000a900460ff1660ff16145b1515610b1957600080fd5b6004600083815260200190815260200160002090508060000160009054906101000a900473ffffffffffffffffffffffffffffffffffffffff1673ffffffffffffffffffffffffffffffffffffffff16600014151515610b7857600080fd5b8060000160009054906101000a900473ffffffffffffffffffffffffffffffffffffffff1673ffffffffffffffffffffffffffffffffffffffff163373ffffffffffffffffffffffffffffffffffffffff1614151515610bd757600080fd5b60008160040160003373ffffffffffffffffffffffffffffffffffffffff1673ffffffffffffffffffffffffffffffffffffffff16815260200190815260200160002060009054906101000a900460ff1660ff16141515610c3757600080fd5b60018160040160003373ffffffffffffffffffffffffffffffffffffffff1673ffffffffffffffffffffffffffffffffffffffff16815260200190815260200160002060006101000a81548160ff021916908360ff16021790555080600301600081819054906101000a900460ff168092919060010191906101000a81548160ff021916908360ff160217905550507fac63e7e1dc16bccf900879686e74ca33eeb175b670e3aaa9d7e4ccf3781b7a7a3383604051808373ffffffffffffffffffffffffffffffffffffffff1673ffffffffffffffffffffffffffffffffffffffff1681526020018281526020019250505060405180910390a1600260ff168160030160009054906101000a900460ff1660ff16101515610ec45780600201543073ffffffffffffffffffffffffffffffffffffffff163110151515610d7c57600080fd5b8060010160009054906101000a900473ffffffffffffffffffffffffffffffffffffffff1673ffffffffffffffffffffffffffffffffffffffff166108fc82600201549081150290604051600060405180830381858888f19350505050158015610dea573d6000803e3d6000fd5b507f394c4e679790fab24fd86614fd812811c9c835e4c475bdfc3d26fd0d6f7ca6fd338260010160009054906101000a900473ffffffffffffffffffffffffffffffffffffffff16836002015485604051808573ffffffffffffffffffffffffffffffffffffffff1673ffffffffffffffffffffffffffffffffffffffff1681526020018473ffffffffffffffffffffffffffffffffffffffff1673ffffffffffffffffffffffffffffffffffffffff16815260200183815260200182815260200194505050505060405180910390a1610ec382610336565b5b5050565b6000809054906101000a900473ffffffffffffffffffffffffffffffffffffffff1673ffffffffffffffffffffffffffffffffffffffff163373ffffffffffffffffffffffffffffffffffffffff161480610f71575060018060003373ffffffffffffffffffffffffffffffffffffffff1673ffffffffffffffffffffffffffffffffffffffff16815260200190815260200160002060009054906101000a900460ff1660ff16145b1515610f7c57600080fd5b60018060008373ffffffffffffffffffffffffffffffffffffffff1673ffffffffffffffffffffffffffffffffffffffff16815260200190815260200160002060006101000a81548160ff021916908360ff16021790555050565b565b60003073ffffffffffffffffffffffffffffffffffffffff1631905090565b6000600380549050905090565b60606000809054906101000a900473ffffffffffffffffffffffffffffffffffffffff1673ffffffffffffffffffffffffffffffffffffffff163373ffffffffffffffffffffffffffffffffffffffff1614806110b0575060018060003373ffffffffffffffffffffffffffffffffffffffff1673ffffffffffffffffffffffffffffffffffffffff16815260200190815260200160002060009054906101000a900460ff1660ff16145b15156110bb57600080fd5b600380548060200260200160405190810160405280929190818152602001828054801561110757602002820191906000526020600020905b8154815260200190600101908083116110f3575b5050505050905090565b815481835581811115611138578183600052602060002091820191016111379190611195565b5b505050565b608060405190810160405280600073ffffffffffffffffffffffffffffffffffffffff168152602001600073ffffffffffffffffffffffffffffffffffffffff16815260200160008152602001600060ff1681525090565b6111b791905b808211156111b357600081600090555060010161119b565b5090565b905600a165627a7a72305820d73ad0362d3ee27ff41e5558b4efbb37cd378bb09a6acf9e467a8423cd7fecca0029",
  "source": "pragma solidity ^0.4.0;\n\ncontract MultiSigWallet {\n\n    address private _owner;\n    mapping(address => uint8) private _owners;\n\n    uint _transactionIdx;\n    uint[] private _pendingTransactions;\n\n    struct Transaction {\n      address from;\n      address to;\n      uint amount;\n      uint8 signatureCount;\n      mapping (address => uint8) signatures;\n    }\n\n    mapping(uint => Transaction) _transactions;\n    uint8 constant private _sigRequiredCount = 2;\n\n    modifier validOwner() {\n        require(msg.sender == _owner || _owners[msg.sender] == 1);\n        //require(_owners[msg.sender] == 1);\n        _;\n    }\n\n    event DepositFunds(address from, uint amount);\n    event TransactionCreated(address from, address to, uint amount, uint transactionId);\n    event TransactionCompleted(address from, address to, uint amount, uint transactionId);\n    event TransactionSigned(address by, uint transactionId);\n\n    function MultiSigWallet()\n        public {\n        // Set master contract owner\n        _owner = msg.sender;\n        //_owners[msg.sender] = 1;\n    }\n\n    function addOwner(address owner)\n        // isOwner\n        validOwner\n        public {\n        _owners[owner] = 1;\n    }\n\n    function removeOwner(address owner)\n        // isOwner\n        // The owner validation was missing\n        validOwner\n        public {\n        _owners[owner] = 0;\n    }\n\n    function ()\n        public\n        payable {\n        DepositFunds(msg.sender, msg.value);\n    }\n\n    function send()\n      public\n      payable{}\n\n    function withdraw(uint amount)\n        validOwner\n        public {\n        transferTo(msg.sender, amount);\n    }\n\n    function transferTo(address to, uint amount)\n        validOwner\n        public {\n        require(address(this).balance >= amount);\n        uint transactionId = _transactionIdx++;\n        Transaction memory transaction;\n        transaction.from = msg.sender;\n        transaction.to = to;\n        transaction.amount = amount;\n        transaction.signatureCount = 0;\n        _transactions[transactionId] = transaction;\n        _pendingTransactions.push(transactionId);\n        TransactionCreated(msg.sender, to, amount, transactionId);\n    }\n\n    function getActiveTransactions()\n      validOwner\n      view\n      public\n      returns (uint[]) {\n      return _pendingTransactions;\n    }\n\n    function signTransaction(uint transactionId)\n      validOwner\n      public {\n\n      Transaction storage transaction = _transactions[transactionId];\n\n      // Transaction must exist\n      require(0x0 != transaction.from);\n      //Creator cannot sign this\n      require(msg.sender != transaction.from);\n      // Has not already signed this transaction\n      require(transaction.signatures[msg.sender] == 0);\n\n      transaction.signatures[msg.sender] = 1;\n      transaction.signatureCount++;\n\n      TransactionSigned(msg.sender, transactionId);\n\n      if (transaction.signatureCount >= _sigRequiredCount) {\n        require(address(this).balance >= transaction.amount);\n        transaction.to.transfer(transaction.amount);\n        TransactionCompleted(msg.sender, transaction.to, transaction.amount, transactionId);\n        deleteTransaction(transactionId);\n      }\n    }\n\n    function deleteTransaction(uint transactionId)\n      validOwner\n      public {\n      uint8 replace = 0;\n      require(_pendingTransactions.length > 0);\n      for(uint i = 0; i < _pendingTransactions.length; i++) {\n          if (1 == replace) {\n              _pendingTransactions[i-1] = _pendingTransactions[i];\n          } else if (_pendingTransactions[i] == transactionId) {\n              replace = 1;\n          }\n      }\n      assert(replace == 1);\n      // Created an Overflow\n      delete _pendingTransactions[_pendingTransactions.length - 1];\n      _pendingTransactions.length--;\n      delete _transactions[transactionId];\n    }\n\n    function getPendingTransactionLength()\n      public\n      view\n      returns (uint) {\n      return _pendingTransactions.length;\n    }\n\n    function walletBalance()\n        constant\n        public returns (uint) {\n        return address(this).balance;\n    }\n}\n",
  "sourcePath": "/Users/razi/Documents/blockchain-workshop/multi-sig-wallet/contracts/MultiSigWallet.sol",
  "compiler": {
    "name": "solc",
    "version": "0.4.24+commit.e67f0147.Emscripten.clang"
  },
  "schemaVersion": "2.0.1",
  "updatedAt": "2018-07-03T02:22:08.577Z"
}